:020000040000FA
:10000000B81000205D0100006501000067010000DC
:10001000690100006B0100006D010000000000009C
:100020000000000000000000000000006F01000060
:100030007101000000000000730100007501000064
:1000400077010000770100007701000077010000D0
:1000500077010000770100007701000077010000C0
:1000600077010000770100007701000077010000B0
:1000700077010000770100007701000077010000A0
:100080007701000077010000770100007701000090
:100090000000000000000000000000000000000060
:1000A0000000000000000000000000000000000050
:1000B00077010000000000007701000077010000D8
:1000C00000F002F800F03AF80AA090E8000C824430
:1000D0008344AAF10107DA4501D100F02FF8AFF20D
:1000E000090EBAE80F0013F0010F18BFFB1A43F016
:1000F00001031847E001000000020000103A24BF8D
:1001000078C878C1FAD8520724BF30C830C144BF7C
:1001100004680C60704700000023002400250026BE
:10012000103A28BF78C1FBD8520728BF30C148BF5A
:100130000B6070471FB51FBD10B510BD00F031F842
:100140001146FFF7F7FF00F06FF800F04FF803B427
:10015000FFF7F2FF03BC00F057F8000009488047A2
:1001600009480047FEE7FEE7FEE7FEE7FEE7FEE799
:10017000FEE7FEE7FEE7FEE704480549054A064BB1
:100180007047000019020000C1000000B800002004
:10019000B8100020B80C0020B80C00207047704741
:1001A0007047754600F02CF8AE4605006946534688
:1001B00020F00700854618B020B5FFF7DDFFBDE849
:1001C00020404FF000064FF000074FF000084FF0BE
:1001D000000B21F00701AC46ACE8C009ACE8C0094F
:1001E000ACE8C009ACE8C0098D46704710B50446BC
:1001F000AFF300802046BDE81040FFF7A8BF000025
:10020000004870475400002001491820ABBEFEE7AB
:10021000260002007047000001480249086070474C
:1002200040787D010000002010B5114800F028F84A
:10023000104800F032F801200E4908600E4800F026
:100240002CF802200C4908600C4800F026F8032026
:100250000A4908600849064800F022F805490448A0
:1002600000F01EF80549024800F01AF8002010BD01
:1002700004000020180000202C0000204000002076
:1002800000F1080141604FF0FF31816000F1080189
:10029000C160016100210160704700210161704768
:1002A00010B502460B685C1C0CB9106907E002F13E
:1002B000080000E04068446824689C42FAD9446819
:1002C0004C604C68A160886041600A611468641CDD
:1002D000146010BDF40200000000002004000000C3
:1002E000FC000000F802000004000020B410000030
:0802F0001801000040787D01B7
:04000005000000C136
:00000001FF
